{
  "_format": "hh-sol-artifact-1",
  "contractName": "Domains",
  "sourceName": "contracts/Domains.sol",
  "abi": [
    {
      "inputs": [
        {
          "internalType": "string",
          "name": "_tld",
          "type": "string"
        }
      ],
      "stateMutability": "payable",
      "type": "constructor"
    },
    {
      "inputs": [],
      "name": "AlreadyRegistered",
      "type": "error"
    },
    {
      "inputs": [
        {
          "internalType": "string",
          "name": "name",
          "type": "string"
        }
      ],
      "name": "InvalidName",
      "type": "error"
    },
    {
      "inputs": [],
      "name": "Unauthorized",
      "type": "error"
    },
    {
      "anonymous": false,
      "inputs": [
        {
          "indexed": true,
          "internalType": "address",
          "name": "owner",
          "type": "address"
        },
        {
          "indexed": true,
          "internalType": "address",
          "name": "approved",
          "type": "address"
        },
        {
          "indexed": true,
          "internalType": "uint256",
          "name": "tokenId",
          "type": "uint256"
        }
      ],
      "name": "Approval",
      "type": "event"
    },
    {
      "anonymous": false,
      "inputs": [
        {
          "indexed": true,
          "internalType": "address",
          "name": "owner",
          "type": "address"
        },
        {
          "indexed": true,
          "internalType": "address",
          "name": "operator",
          "type": "address"
        },
        {
          "indexed": false,
          "internalType": "bool",
          "name": "approved",
          "type": "bool"
        }
      ],
      "name": "ApprovalForAll",
      "type": "event"
    },
    {
      "anonymous": false,
      "inputs": [
        {
          "indexed": true,
          "internalType": "address",
          "name": "from",
          "type": "address"
        },
        {
          "indexed": true,
          "internalType": "address",
          "name": "to",
          "type": "address"
        },
        {
          "indexed": true,
          "internalType": "uint256",
          "name": "tokenId",
          "type": "uint256"
        }
      ],
      "name": "Transfer",
      "type": "event"
    },
    {
      "inputs": [
        {
          "internalType": "address",
          "name": "to",
          "type": "address"
        },
        {
          "internalType": "uint256",
          "name": "tokenId",
          "type": "uint256"
        }
      ],
      "name": "approve",
      "outputs": [],
      "stateMutability": "nonpayable",
      "type": "function"
    },
    {
      "inputs": [
        {
          "internalType": "address",
          "name": "owner",
          "type": "address"
        }
      ],
      "name": "balanceOf",
      "outputs": [
        {
          "internalType": "uint256",
          "name": "",
          "type": "uint256"
        }
      ],
      "stateMutability": "view",
      "type": "function"
    },
    {
      "inputs": [
        {
          "internalType": "string",
          "name": "",
          "type": "string"
        }
      ],
      "name": "domains",
      "outputs": [
        {
          "internalType": "address",
          "name": "",
          "type": "address"
        }
      ],
      "stateMutability": "view",
      "type": "function"
    },
    {
      "inputs": [
        {
          "internalType": "string",
          "name": "name",
          "type": "string"
        }
      ],
      "name": "getAddress",
      "outputs": [
        {
          "internalType": "address",
          "name": "",
          "type": "address"
        }
      ],
      "stateMutability": "view",
      "type": "function"
    },
    {
      "inputs": [],
      "name": "getAllNames",
      "outputs": [
        {
          "internalType": "string[]",
          "name": "",
          "type": "string[]"
        }
      ],
      "stateMutability": "view",
      "type": "function"
    },
    {
      "inputs": [
        {
          "internalType": "uint256",
          "name": "tokenId",
          "type": "uint256"
        }
      ],
      "name": "getApproved",
      "outputs": [
        {
          "internalType": "address",
          "name": "",
          "type": "address"
        }
      ],
      "stateMutability": "view",
      "type": "function"
    },
    {
      "inputs": [
        {
          "internalType": "string",
          "name": "name",
          "type": "string"
        }
      ],
      "name": "getRecord",
      "outputs": [
        {
          "internalType": "string",
          "name": "",
          "type": "string"
        }
      ],
      "stateMutability": "view",
      "type": "function"
    },
    {
      "inputs": [
        {
          "internalType": "address",
          "name": "owner",
          "type": "address"
        },
        {
          "internalType": "address",
          "name": "operator",
          "type": "address"
        }
      ],
      "name": "isApprovedForAll",
      "outputs": [
        {
          "internalType": "bool",
          "name": "",
          "type": "bool"
        }
      ],
      "stateMutability": "view",
      "type": "function"
    },
    {
      "inputs": [],
      "name": "isOwner",
      "outputs": [
        {
          "internalType": "bool",
          "name": "",
          "type": "bool"
        }
      ],
      "stateMutability": "view",
      "type": "function"
    },
    {
      "inputs": [],
      "name": "name",
      "outputs": [
        {
          "internalType": "string",
          "name": "",
          "type": "string"
        }
      ],
      "stateMutability": "view",
      "type": "function"
    },
    {
      "inputs": [
        {
          "internalType": "uint256",
          "name": "",
          "type": "uint256"
        }
      ],
      "name": "names",
      "outputs": [
        {
          "internalType": "string",
          "name": "",
          "type": "string"
        }
      ],
      "stateMutability": "view",
      "type": "function"
    },
    {
      "inputs": [],
      "name": "owner",
      "outputs": [
        {
          "internalType": "address payable",
          "name": "",
          "type": "address"
        }
      ],
      "stateMutability": "view",
      "type": "function"
    },
    {
      "inputs": [
        {
          "internalType": "uint256",
          "name": "tokenId",
          "type": "uint256"
        }
      ],
      "name": "ownerOf",
      "outputs": [
        {
          "internalType": "address",
          "name": "",
          "type": "address"
        }
      ],
      "stateMutability": "view",
      "type": "function"
    },
    {
      "inputs": [
        {
          "internalType": "string",
          "name": "name",
          "type": "string"
        }
      ],
      "name": "price",
      "outputs": [
        {
          "internalType": "uint256",
          "name": "",
          "type": "uint256"
        }
      ],
      "stateMutability": "pure",
      "type": "function"
    },
    {
      "inputs": [
        {
          "internalType": "string",
          "name": "",
          "type": "string"
        }
      ],
      "name": "records",
      "outputs": [
        {
          "internalType": "string",
          "name": "",
          "type": "string"
        }
      ],
      "stateMutability": "view",
      "type": "function"
    },
    {
      "inputs": [
        {
          "internalType": "string",
          "name": "name",
          "type": "string"
        }
      ],
      "name": "register",
      "outputs": [],
      "stateMutability": "payable",
      "type": "function"
    },
    {
      "inputs": [
        {
          "internalType": "address",
          "name": "from",
          "type": "address"
        },
        {
          "internalType": "address",
          "name": "to",
          "type": "address"
        },
        {
          "internalType": "uint256",
          "name": "tokenId",
          "type": "uint256"
        }
      ],
      "name": "safeTransferFrom",
      "outputs": [],
      "stateMutability": "nonpayable",
      "type": "function"
    },
    {
      "inputs": [
        {
          "internalType": "address",
          "name": "from",
          "type": "address"
        },
        {
          "internalType": "address",
          "name": "to",
          "type": "address"
        },
        {
          "internalType": "uint256",
          "name": "tokenId",
          "type": "uint256"
        },
        {
          "internalType": "bytes",
          "name": "data",
          "type": "bytes"
        }
      ],
      "name": "safeTransferFrom",
      "outputs": [],
      "stateMutability": "nonpayable",
      "type": "function"
    },
    {
      "inputs": [
        {
          "internalType": "address",
          "name": "operator",
          "type": "address"
        },
        {
          "internalType": "bool",
          "name": "approved",
          "type": "bool"
        }
      ],
      "name": "setApprovalForAll",
      "outputs": [],
      "stateMutability": "nonpayable",
      "type": "function"
    },
    {
      "inputs": [
        {
          "internalType": "string",
          "name": "name",
          "type": "string"
        },
        {
          "internalType": "string",
          "name": "record",
          "type": "string"
        }
      ],
      "name": "setRecord",
      "outputs": [],
      "stateMutability": "nonpayable",
      "type": "function"
    },
    {
      "inputs": [
        {
          "internalType": "bytes4",
          "name": "interfaceId",
          "type": "bytes4"
        }
      ],
      "name": "supportsInterface",
      "outputs": [
        {
          "internalType": "bool",
          "name": "",
          "type": "bool"
        }
      ],
      "stateMutability": "view",
      "type": "function"
    },
    {
      "inputs": [],
      "name": "symbol",
      "outputs": [
        {
          "internalType": "string",
          "name": "",
          "type": "string"
        }
      ],
      "stateMutability": "view",
      "type": "function"
    },
    {
      "inputs": [],
      "name": "tld",
      "outputs": [
        {
          "internalType": "string",
          "name": "",
          "type": "string"
        }
      ],
      "stateMutability": "view",
      "type": "function"
    },
    {
      "inputs": [
        {
          "internalType": "uint256",
          "name": "tokenId",
          "type": "uint256"
        }
      ],
      "name": "tokenURI",
      "outputs": [
        {
          "internalType": "string",
          "name": "",
          "type": "string"
        }
      ],
      "stateMutability": "view",
      "type": "function"
    },
    {
      "inputs": [
        {
          "internalType": "address",
          "name": "from",
          "type": "address"
        },
        {
          "internalType": "address",
          "name": "to",
          "type": "address"
        },
        {
          "internalType": "uint256",
          "name": "tokenId",
          "type": "uint256"
        }
      ],
      "name": "transferFrom",
      "outputs": [],
      "stateMutability": "nonpayable",
      "type": "function"
    },
    {
      "inputs": [
        {
          "internalType": "string",
          "name": "name",
          "type": "string"
        }
      ],
      "name": "valid",
      "outputs": [
        {
          "internalType": "bool",
          "name": "",
          "type": "bool"
        }
      ],
      "stateMutability": "pure",
      "type": "function"
    },
    {
      "inputs": [],
      "name": "withdraw",
      "outputs": [],
      "stateMutability": "nonpayable",
      "type": "function"
    }
  ],
  "bytecode": "0x6080604052604051806104a0016040528061046e8152602001620052e861046e9139600990805190602001906200003892919062000287565b506040518060400160405280600d81526020017f3c2f746578743e3c2f7376673e00000000000000000000000000000000000000815250600a90805190602001906200008692919062000287565b5060405162005756380380620057568339818101604052810190620000ac9190620004d4565b6040518060400160405280601281526020017f5465737431204e616d65205365727669636500000000000000000000000000008152506040518060400160405280600381526020017f544e53000000000000000000000000000000000000000000000000000000000081525081600090805190602001906200013092919062000287565b5080600190805190602001906200014992919062000287565b50505080600890805190602001906200016492919062000287565b50620001b16040518060400160405280601881526020017f2573206e616d652073657276696365206465706c6f796564000000000000000081525082620001b860201b62001ba01760201c565b5062000622565b6200025a8282604051602401620001d192919062000582565b6040516020818303038152906040527f4b5c4277000000000000000000000000000000000000000000000000000000007bffffffffffffffffffffffffffffffffffffffffffffffffffffffff19166020820180517bffffffffffffffffffffffffffffffffffffffffffffffffffffffff83818316178352505050506200025e60201b60201c565b5050565b60008151905060006a636f6e736f6c652e6c6f679050602083016000808483855afa5050505050565b8280546200029590620005ec565b90600052602060002090601f016020900481019282620002b9576000855562000305565b82601f10620002d457805160ff191683800117855562000305565b8280016001018555821562000305579182015b8281111562000304578251825591602001919060010190620002e7565b5b50905062000314919062000318565b5090565b5b808211156200033357600081600090555060010162000319565b5090565b6000604051905090565b600080fd5b600080fd5b600080fd5b600080fd5b6000601f19601f8301169050919050565b7f4e487b7100000000000000000000000000000000000000000000000000000000600052604160045260246000fd5b620003a08262000355565b810181811067ffffffffffffffff82111715620003c257620003c162000366565b5b80604052505050565b6000620003d762000337565b9050620003e5828262000395565b919050565b600067ffffffffffffffff82111562000408576200040762000366565b5b620004138262000355565b9050602081019050919050565b60005b838110156200044057808201518184015260208101905062000423565b8381111562000450576000848401525b50505050565b60006200046d6200046784620003ea565b620003cb565b9050828152602081018484840111156200048c576200048b62000350565b5b6200049984828562000420565b509392505050565b600082601f830112620004b957620004b86200034b565b5b8151620004cb84826020860162000456565b91505092915050565b600060208284031215620004ed57620004ec62000341565b5b600082015167ffffffffffffffff8111156200050e576200050d62000346565b5b6200051c84828501620004a1565b91505092915050565b600081519050919050565b600082825260208201905092915050565b60006200054e8262000525565b6200055a818562000530565b93506200056c81856020860162000420565b620005778162000355565b840191505092915050565b600060408201905081810360008301526200059e818562000541565b90508181036020830152620005b4818462000541565b90509392505050565b7f4e487b7100000000000000000000000000000000000000000000000000000000600052602260045260246000fd5b600060028204905060018216806200060557607f821691505b602082108114156200061c576200061b620005bd565b5b50919050565b614cb680620006326000396000f3fe60806040526004361061019c5760003560e01c806370a08231116100ec578063bf40fac11161008a578063e985e9c511610064578063e985e9c514610624578063f2c298be14610661578063fb825e5f1461067d578063fe2c6198146106a85761019c565b8063bf40fac114610581578063c1880a98146105be578063c87b56dd146105e75761019c565b806395d89b41116100c657806395d89b41146104c75780639791c097146104f2578063a22cb4651461052f578063b88d4fde146105585761019c565b806370a08231146104345780638da5cb5b146104715780638f32d59b1461049c5761019c565b8063264492351161015957806342842e0e1161013357806342842e0e146103545780634622ab031461037d578063541e771d146103ba5780636352211e146103f75761019c565b806326449235146102d55780632d551432146103125780633ccfd60b1461033d5761019c565b806301ffc9a7146101a157806306fdde03146101de578063081812fc14610209578063095ea7b31461024657806311dd88451461026f57806323b872dd146102ac575b600080fd5b3480156101ad57600080fd5b506101c860048036038101906101c391906132e9565b6106e5565b6040516101d59190613331565b60405180910390f35b3480156101ea57600080fd5b506101f36107c7565b60405161020091906133e5565b60405180910390f35b34801561021557600080fd5b50610230600480360381019061022b919061343d565b610859565b60405161023d91906134ab565b60405180910390f35b34801561025257600080fd5b5061026d600480360381019061026891906134f2565b61089f565b005b34801561027b57600080fd5b5061029660048036038101906102919190613597565b6109b7565b6040516102a391906133e5565b60405180910390f35b3480156102b857600080fd5b506102d360048036038101906102ce91906135e4565b610a6a565b005b3480156102e157600080fd5b506102fc60048036038101906102f79190613767565b610aca565b60405161030991906134ab565b60405180910390f35b34801561031e57600080fd5b50610327610b13565b60405161033491906133e5565b60405180910390f35b34801561034957600080fd5b50610352610ba1565b005b34801561036057600080fd5b5061037b600480360381019061037691906135e4565b610c67565b005b34801561038957600080fd5b506103a4600480360381019061039f919061343d565b610c87565b6040516103b191906133e5565b60405180910390f35b3480156103c657600080fd5b506103e160048036038101906103dc9190613767565b610d27565b6040516103ee91906133e5565b60405180910390f35b34801561040357600080fd5b5061041e6004803603810190610419919061343d565b610ddd565b60405161042b91906134ab565b60405180910390f35b34801561044057600080fd5b5061045b600480360381019061045691906137b0565b610e64565b60405161046891906137ec565b60405180910390f35b34801561047d57600080fd5b50610486610f1c565b6040516104939190613828565b60405180910390f35b3480156104a857600080fd5b506104b1610f42565b6040516104be9190613331565b60405180910390f35b3480156104d357600080fd5b506104dc610f9a565b6040516104e991906133e5565b60405180910390f35b3480156104fe57600080fd5b5061051960048036038101906105149190613597565b61102c565b6040516105269190613331565b60405180910390f35b34801561053b57600080fd5b506105566004803603810190610551919061386f565b6110e0565b005b34801561056457600080fd5b5061057f600480360381019061057a9190613950565b6110f6565b005b34801561058d57600080fd5b506105a860048036038101906105a39190613597565b611158565b6040516105b591906134ab565b60405180910390f35b3480156105ca57600080fd5b506105e560048036038101906105e091906139d3565b6111a3565b005b3480156105f357600080fd5b5061060e6004803603810190610609919061343d565b61127e565b60405161061b91906133e5565b60405180910390f35b34801561063057600080fd5b5061064b60048036038101906106469190613a54565b611391565b6040516106589190613331565b60405180910390f35b61067b60048036038101906106769190613597565b611425565b005b34801561068957600080fd5b5061069261191c565b60405161069f9190613ba0565b60405180910390f35b3480156106b457600080fd5b506106cf60048036038101906106ca9190613597565b611afa565b6040516106dc91906137ec565b60405180910390f35b60007f80ac58cd000000000000000000000000000000000000000000000000000000007bffffffffffffffffffffffffffffffffffffffffffffffffffffffff1916827bffffffffffffffffffffffffffffffffffffffffffffffffffffffff191614806107b057507f5b5e139f000000000000000000000000000000000000000000000000000000007bffffffffffffffffffffffffffffffffffffffffffffffffffffffff1916827bffffffffffffffffffffffffffffffffffffffffffffffffffffffff1916145b806107c057506107bf82611c3c565b5b9050919050565b6060600080546107d690613bf1565b80601f016020809104026020016040519081016040528092919081815260200182805461080290613bf1565b801561084f5780601f106108245761010080835404028352916020019161084f565b820191906000526020600020905b81548152906001019060200180831161083257829003601f168201915b5050505050905090565b600061086482611ca6565b6004600083815260200190815260200160002060009054906101000a900473ffffffffffffffffffffffffffffffffffffffff169050919050565b60006108aa82610ddd565b90508073ffffffffffffffffffffffffffffffffffffffff168373ffffffffffffffffffffffffffffffffffffffff16141561091b576040517f08c379a000000000000000000000000000000000000000000000000000000000815260040161091290613c95565b60405180910390fd5b8073ffffffffffffffffffffffffffffffffffffffff1661093a611cf1565b73ffffffffffffffffffffffffffffffffffffffff161480610969575061096881610963611cf1565b611391565b5b6109a8576040517f08c379a000000000000000000000000000000000000000000000000000000000815260040161099f90613d27565b60405180910390fd5b6109b28383611cf9565b505050565b6060600c83836040516109cb929190613d77565b908152602001604051809103902080546109e490613bf1565b80601f0160208091040260200160405190810160405280929190818152602001828054610a1090613bf1565b8015610a5d5780601f10610a3257610100808354040283529160200191610a5d565b820191906000526020600020905b815481529060010190602001808311610a4057829003601f168201915b5050505050905092915050565b610a7b610a75611cf1565b82611db2565b610aba576040517f08c379a0000000000000000000000000000000000000000000000000000000008152600401610ab190613e02565b60405180910390fd5b610ac5838383611e47565b505050565b600b818051602081018201805184825260208301602085012081835280955050505050506000915054906101000a900473ffffffffffffffffffffffffffffffffffffffff1681565b60088054610b2090613bf1565b80601f0160208091040260200160405190810160405280929190818152602001828054610b4c90613bf1565b8015610b995780601f10610b6e57610100808354040283529160200191610b99565b820191906000526020600020905b815481529060010190602001808311610b7c57829003601f168201915b505050505081565b610ba9610f42565b610bb257600080fd5b600047905060003373ffffffffffffffffffffffffffffffffffffffff1682604051610bdd90613e53565b60006040518083038185875af1925050503d8060008114610c1a576040519150601f19603f3d011682016040523d82523d6000602084013e610c1f565b606091505b5050905080610c63576040517f08c379a0000000000000000000000000000000000000000000000000000000008152600401610c5a90613eb4565b60405180910390fd5b5050565b610c82838383604051806020016040528060008152506110f6565b505050565b600d6020528060005260406000206000915090508054610ca690613bf1565b80601f0160208091040260200160405190810160405280929190818152602001828054610cd290613bf1565b8015610d1f5780601f10610cf457610100808354040283529160200191610d1f565b820191906000526020600020905b815481529060010190602001808311610d0257829003601f168201915b505050505081565b600c818051602081018201805184825260208301602085012081835280955050505050506000915090508054610d5c90613bf1565b80601f0160208091040260200160405190810160405280929190818152602001828054610d8890613bf1565b8015610dd55780601f10610daa57610100808354040283529160200191610dd5565b820191906000526020600020905b815481529060010190602001808311610db857829003601f168201915b505050505081565b600080610de983612141565b9050600073ffffffffffffffffffffffffffffffffffffffff168173ffffffffffffffffffffffffffffffffffffffff161415610e5b576040517f08c379a0000000000000000000000000000000000000000000000000000000008152600401610e5290613f20565b60405180910390fd5b80915050919050565b60008073ffffffffffffffffffffffffffffffffffffffff168273ffffffffffffffffffffffffffffffffffffffff161415610ed5576040517f08c379a0000000000000000000000000000000000000000000000000000000008152600401610ecc90613fb2565b60405180910390fd5b600360008373ffffffffffffffffffffffffffffffffffffffff1673ffffffffffffffffffffffffffffffffffffffff168152602001908152602001600020549050919050565b600e60009054906101000a900473ffffffffffffffffffffffffffffffffffffffff1681565b6000600e60009054906101000a900473ffffffffffffffffffffffffffffffffffffffff1673ffffffffffffffffffffffffffffffffffffffff163373ffffffffffffffffffffffffffffffffffffffff1614905090565b606060018054610fa990613bf1565b80601f0160208091040260200160405190810160405280929190818152602001828054610fd590613bf1565b80156110225780601f10610ff757610100808354040283529160200191611022565b820191906000526020600020905b81548152906001019060200180831161100557829003601f168201915b5050505050905090565b6000600361107d84848080601f016020809104026020016040519081016040528093929190818152602001838380828437600081840152601f19601f8201169050808301925050505050505061217e565b101580156110d85750600a6110d584848080601f016020809104026020016040519081016040528093929190818152602001838380828437600081840152601f19601f8201169050808301925050505050505061217e565b11155b905092915050565b6110f26110eb611cf1565b8383612333565b5050565b611107611101611cf1565b83611db2565b611146576040517f08c379a000000000000000000000000000000000000000000000000000000000815260040161113d90613e02565b60405180910390fd5b611152848484846124a0565b50505050565b6000600b838360405161116c929190613d77565b908152602001604051809103902060009054906101000a900473ffffffffffffffffffffffffffffffffffffffff16905092915050565b600b84846040516111b5929190613d77565b908152602001604051809103902060009054906101000a900473ffffffffffffffffffffffffffffffffffffffff1673ffffffffffffffffffffffffffffffffffffffff163373ffffffffffffffffffffffffffffffffffffffff1614611248576040517f82b4290000000000000000000000000000000000000000000000000000000000815260040160405180910390fd5b8181600c868660405161125c929190613d77565b90815260200160405180910390209190611277929190613154565b5050505050565b606061128982611ca6565b60006006600084815260200190815260200160002080546112a990613bf1565b80601f01602080910402602001604051908101604052809291908181526020018280546112d590613bf1565b80156113225780601f106112f757610100808354040283529160200191611322565b820191906000526020600020905b81548152906001019060200180831161130557829003601f168201915b5050505050905060006113336124fc565b905060008151141561134957819250505061138c565b60008251111561137e578082604051602001611366929190614003565b6040516020818303038152906040529250505061138c565b61138784612513565b925050505b919050565b6000600560008473ffffffffffffffffffffffffffffffffffffffff1673ffffffffffffffffffffffffffffffffffffffff16815260200190815260200160002060008373ffffffffffffffffffffffffffffffffffffffff1673ffffffffffffffffffffffffffffffffffffffff16815260200190815260200160002060009054906101000a900460ff16905092915050565b600073ffffffffffffffffffffffffffffffffffffffff16600b838360405161144f929190613d77565b908152602001604051809103902060009054906101000a900473ffffffffffffffffffffffffffffffffffffffff1673ffffffffffffffffffffffffffffffffffffffff16146114cb576040517f3a81d6fc00000000000000000000000000000000000000000000000000000000815260040160405180910390fd5b6114d5828261102c565b6115185781816040517f7f19f48d00000000000000000000000000000000000000000000000000000000815260040161150f929190614054565b60405180910390fd5b600073ffffffffffffffffffffffffffffffffffffffff16600b8383604051611542929190613d77565b908152602001604051809103902060009054906101000a900473ffffffffffffffffffffffffffffffffffffffff1673ffffffffffffffffffffffffffffffffffffffff161461159157600080fd5b600061159d8383611afa565b9050803410156115e2576040517f08c379a00000000000000000000000000000000000000000000000000000000081526004016115d9906140c4565b60405180910390fd5b6000838360086040516020016115fa939291906141c4565b60405160208183030381529060405290506000600982600a604051602001611624939291906141f5565b60405160208183030381529060405290506000611641600761257b565b9050600061169287878080601f016020809104026020016040519081016040528093929190818152602001838380828437600081840152601f19601f8201169050808301925050505050505061217e565b9050600061169f82612589565b9050611793604051806060016040528060318152602001614bd76031913989898080601f016020809104026020016040519081016040528093929190818152602001838380828437600081840152601f19601f820116905080830192505050505050506008805461170f90613bf1565b80601f016020809104026020016040519081016040528092919081815260200182805461173b90613bf1565b80156117885780601f1061175d57610100808354040283529160200191611788565b820191906000526020600020905b81548152906001019060200180831161176b57829003601f168201915b505050505086612661565b60006117c9866117a287612703565b846040516020016117b5939291906143a2565b604051602081830303815290604052612703565b90506000816040516020016117de919061444b565b6040516020818303038152906040529050611810604051806060016040528060398152602001614b9e60399139612867565b61184f6040518060400160405280600e81526020017f46696e616c20746f6b656e55524900000000000000000000000000000000000081525082611ba0565b611870604051806060016040528060398152602001614c0860399139612867565b61187a3386612900565b611884858261291e565b33600b8b8b604051611897929190613d77565b908152602001604051809103902060006101000a81548173ffffffffffffffffffffffffffffffffffffffff021916908373ffffffffffffffffffffffffffffffffffffffff1602179055508989600d60008881526020019081526020016000209190611905929190613154565b506119106007612992565b50505050505050505050565b606061195c6040518060400160405280601f81526020017f47657474696e6720616c6c206e616d65732066726f6d20636f6e747261637400815250612867565b6000611968600761257b565b67ffffffffffffffff8111156119815761198061363c565b5b6040519080825280602002602001820160405280156119b457816020015b606081526020019060019003908161199f5790505b50905060005b6119c4600761257b565b811015611af257600d600082815260200190815260200160002080546119e990613bf1565b80601f0160208091040260200160405190810160405280929190818152602001828054611a1590613bf1565b8015611a625780601f10611a3757610100808354040283529160200191611a62565b820191906000526020600020905b815481529060010190602001808311611a4557829003601f168201915b5050505050828281518110611a7a57611a7961446d565b5b6020026020010181905250611adf6040518060400160405280601781526020017f4e616d6520666f7220746f6b656e20256420697320257300000000000000000081525082848481518110611ad257611ad161446d565b5b60200260200101516129a8565b8080611aea906144cb565b9150506119ba565b508091505090565b600080611b4a84848080601f016020809104026020016040519081016040528093929190818152602001838380828437600081840152601f19601f8201169050808301925050505050505061217e565b905060008111611b5957600080fd5b6003811415611b73576706f05b59d3b20000915050611b9a565b6004811415611b8d57670429d069189e0000915050611b9a565b67016345785d8a00009150505b92915050565b611c388282604051602401611bb6929190614514565b6040516020818303038152906040527f4b5c4277000000000000000000000000000000000000000000000000000000007bffffffffffffffffffffffffffffffffffffffffffffffffffffffff19166020820180517bffffffffffffffffffffffffffffffffffffffffffffffffffffffff8381831617835250505050612a47565b5050565b60007f01ffc9a7000000000000000000000000000000000000000000000000000000007bffffffffffffffffffffffffffffffffffffffffffffffffffffffff1916827bffffffffffffffffffffffffffffffffffffffffffffffffffffffff1916149050919050565b611caf81612a70565b611cee576040517f08c379a0000000000000000000000000000000000000000000000000000000008152600401611ce590613f20565b60405180910390fd5b50565b600033905090565b816004600083815260200190815260200160002060006101000a81548173ffffffffffffffffffffffffffffffffffffffff021916908373ffffffffffffffffffffffffffffffffffffffff160217905550808273ffffffffffffffffffffffffffffffffffffffff16611d6c83610ddd565b73ffffffffffffffffffffffffffffffffffffffff167f8c5be1e5ebec7d5bd14f71427d1e84f3dd0314c0f7b2291e5b200ac8c7c3b92560405160405180910390a45050565b600080611dbe83610ddd565b90508073ffffffffffffffffffffffffffffffffffffffff168473ffffffffffffffffffffffffffffffffffffffff161480611e005750611dff8185611391565b5b80611e3e57508373ffffffffffffffffffffffffffffffffffffffff16611e2684610859565b73ffffffffffffffffffffffffffffffffffffffff16145b91505092915050565b8273ffffffffffffffffffffffffffffffffffffffff16611e6782610ddd565b73ffffffffffffffffffffffffffffffffffffffff1614611ebd576040517f08c379a0000000000000000000000000000000000000000000000000000000008152600401611eb4906145bd565b60405180910390fd5b600073ffffffffffffffffffffffffffffffffffffffff168273ffffffffffffffffffffffffffffffffffffffff161415611f2d576040517f08c379a0000000000000000000000000000000000000000000000000000000008152600401611f249061464f565b60405180910390fd5b611f3a8383836001612ab1565b8273ffffffffffffffffffffffffffffffffffffffff16611f5a82610ddd565b73ffffffffffffffffffffffffffffffffffffffff1614611fb0576040517f08c379a0000000000000000000000000000000000000000000000000000000008152600401611fa7906145bd565b60405180910390fd5b6004600082815260200190815260200160002060006101000a81549073ffffffffffffffffffffffffffffffffffffffff02191690556001600360008573ffffffffffffffffffffffffffffffffffffffff1673ffffffffffffffffffffffffffffffffffffffff168152602001908152602001600020600082825403925050819055506001600360008473ffffffffffffffffffffffffffffffffffffffff1673ffffffffffffffffffffffffffffffffffffffff16815260200190815260200160002060008282540192505081905550816002600083815260200190815260200160002060006101000a81548173ffffffffffffffffffffffffffffffffffffffff021916908373ffffffffffffffffffffffffffffffffffffffff160217905550808273ffffffffffffffffffffffffffffffffffffffff168473ffffffffffffffffffffffffffffffffffffffff167fddf252ad1be2c89b69c2b068fc378daa952ba7f163c4a11628f55a4df523b3ef60405160405180910390a461213c8383836001612bd7565b505050565b60006002600083815260200190815260200160002060009054906101000a900473ffffffffffffffffffffffffffffffffffffffff169050919050565b60008060008084519050600092505b808210156123285760008583815181106121aa576121a961446d565b5b602001015160f81c60f81b9050608060f81b817effffffffffffffffffffffffffffffffffffffffffffffffffffffffffffff191610156121f9576001836121f2919061466f565b9250612314565b60e060f81b817effffffffffffffffffffffffffffffffffffffffffffffffffffffffffffff1916101561223b57600283612234919061466f565b9250612313565b60f060f81b817effffffffffffffffffffffffffffffffffffffffffffffffffffffffffffff1916101561227d57600383612276919061466f565b9250612312565b60f8801b817effffffffffffffffffffffffffffffffffffffffffffffffffffffffffffff191610156122be576004836122b7919061466f565b9250612311565b60fc60f81b817effffffffffffffffffffffffffffffffffffffffffffffffffffffffffffff19161015612300576005836122f9919061466f565b9250612310565b60068361230d919061466f565b92505b5b5b5b5b508280612320906144cb565b93505061218d565b829350505050919050565b8173ffffffffffffffffffffffffffffffffffffffff168373ffffffffffffffffffffffffffffffffffffffff1614156123a2576040517f08c379a000000000000000000000000000000000000000000000000000000000815260040161239990614711565b60405180910390fd5b80600560008573ffffffffffffffffffffffffffffffffffffffff1673ffffffffffffffffffffffffffffffffffffffff16815260200190815260200160002060008473ffffffffffffffffffffffffffffffffffffffff1673ffffffffffffffffffffffffffffffffffffffff16815260200190815260200160002060006101000a81548160ff0219169083151502179055508173ffffffffffffffffffffffffffffffffffffffff168373ffffffffffffffffffffffffffffffffffffffff167f17307eab39ab6107e8899845ad3d59bd9653f200f220920489ca2b5937696c31836040516124939190613331565b60405180910390a3505050565b6124ab848484611e47565b6124b784848484612bdd565b6124f6576040517f08c379a00000000000000000000000000000000000000000000000000000000081526004016124ed906147a3565b60405180910390fd5b50505050565b606060405180602001604052806000815250905090565b606061251e82611ca6565b60006125286124fc565b905060008151116125485760405180602001604052806000815250612573565b8061255284612589565b604051602001612563929190614003565b6040516020818303038152906040525b915050919050565b600081600001549050919050565b60606000600161259884612d65565b01905060008167ffffffffffffffff8111156125b7576125b661363c565b5b6040519080825280601f01601f1916602001820160405280156125e95781602001600182028036833780820191505090505b509050600082602001820190505b600115612656578080600190039150507f3031323334353637383961626364656600000000000000000000000000000000600a86061a8153600a85816126405761263f6147c3565b5b049450600085141561265157612656565b6125f7565b819350505050919050565b6126fd8484848460405160240161267b94939291906147f2565b6040516020818303038152906040527f8eafb02b000000000000000000000000000000000000000000000000000000007bffffffffffffffffffffffffffffffffffffffffffffffffffffffff19166020820180517bffffffffffffffffffffffffffffffffffffffffffffffffffffffff8381831617835250505050612a47565b50505050565b606060008251141561272657604051806020016040528060008152509050612862565b6000604051806060016040528060408152602001614c416040913990506000600360028551612755919061466f565b61275f919061484c565b600461276b919061487d565b67ffffffffffffffff8111156127845761278361363c565b5b6040519080825280601f01601f1916602001820160405280156127b65781602001600182028036833780820191505090505b509050600182016020820185865187015b80821015612822576003820191508151603f8160121c168501518453600184019350603f81600c1c168501518453600184019350603f8160061c168501518453600184019350603f81168501518453600184019350506127c7565b505060038651066001811461283e576002811461285157612859565b603d6001830353603d6002830353612859565b603d60018303535b50505080925050505b919050565b6128fd8160405160240161287b91906133e5565b6040516020818303038152906040527f41304fac000000000000000000000000000000000000000000000000000000007bffffffffffffffffffffffffffffffffffffffffffffffffffffffff19166020820180517bffffffffffffffffffffffffffffffffffffffffffffffffffffffff8381831617835250505050612a47565b50565b61291a828260405180602001604052806000815250612eb8565b5050565b61292782612a70565b612966576040517f08c379a000000000000000000000000000000000000000000000000000000000815260040161295d90614949565b60405180910390fd5b8060066000848152602001908152602001600020908051906020019061298d9291906131da565b505050565b6001816000016000828254019250508190555050565b612a428383836040516024016129c093929190614969565b6040516020818303038152906040527f5970e089000000000000000000000000000000000000000000000000000000007bffffffffffffffffffffffffffffffffffffffffffffffffffffffff19166020820180517bffffffffffffffffffffffffffffffffffffffffffffffffffffffff8381831617835250505050612a47565b505050565b60008151905060006a636f6e736f6c652e6c6f679050602083016000808483855afa5050505050565b60008073ffffffffffffffffffffffffffffffffffffffff16612a9283612141565b73ffffffffffffffffffffffffffffffffffffffff1614159050919050565b6001811115612bd157600073ffffffffffffffffffffffffffffffffffffffff168473ffffffffffffffffffffffffffffffffffffffff1614612b455780600360008673ffffffffffffffffffffffffffffffffffffffff1673ffffffffffffffffffffffffffffffffffffffff1681526020019081526020016000206000828254612b3d91906149ae565b925050819055505b600073ffffffffffffffffffffffffffffffffffffffff168373ffffffffffffffffffffffffffffffffffffffff1614612bd05780600360008573ffffffffffffffffffffffffffffffffffffffff1673ffffffffffffffffffffffffffffffffffffffff1681526020019081526020016000206000828254612bc8919061466f565b925050819055505b5b50505050565b50505050565b6000612bfe8473ffffffffffffffffffffffffffffffffffffffff16612f13565b15612d58578373ffffffffffffffffffffffffffffffffffffffff1663150b7a02612c27611cf1565b8786866040518563ffffffff1660e01b8152600401612c499493929190614a37565b6020604051808303816000875af1925050508015612c8557506040513d601f19601f82011682018060405250810190612c829190614a98565b60015b612d08573d8060008114612cb5576040519150601f19603f3d011682016040523d82523d6000602084013e612cba565b606091505b50600081511415612d00576040517f08c379a0000000000000000000000000000000000000000000000000000000008152600401612cf7906147a3565b60405180910390fd5b805181602001fd5b63150b7a0260e01b7bffffffffffffffffffffffffffffffffffffffffffffffffffffffff1916817bffffffffffffffffffffffffffffffffffffffffffffffffffffffff191614915050612d5d565b600190505b949350505050565b600080600090507a184f03e93ff9f4daa797ed6e38ed64bf6a1f0100000000000000008310612dc3577a184f03e93ff9f4daa797ed6e38ed64bf6a1f0100000000000000008381612db957612db86147c3565b5b0492506040810190505b6d04ee2d6d415b85acef81000000008310612e00576d04ee2d6d415b85acef81000000008381612df657612df56147c3565b5b0492506020810190505b662386f26fc100008310612e2f57662386f26fc100008381612e2557612e246147c3565b5b0492506010810190505b6305f5e1008310612e58576305f5e1008381612e4e57612e4d6147c3565b5b0492506008810190505b6127108310612e7d576127108381612e7357612e726147c3565b5b0492506004810190505b60648310612ea05760648381612e9657612e956147c3565b5b0492506002810190505b600a8310612eaf576001810190505b80915050919050565b612ec28383612f36565b612ecf6000848484612bdd565b612f0e576040517f08c379a0000000000000000000000000000000000000000000000000000000008152600401612f05906147a3565b60405180910390fd5b505050565b6000808273ffffffffffffffffffffffffffffffffffffffff163b119050919050565b600073ffffffffffffffffffffffffffffffffffffffff168273ffffffffffffffffffffffffffffffffffffffff161415612fa6576040517f08c379a0000000000000000000000000000000000000000000000000000000008152600401612f9d90614b11565b60405180910390fd5b612faf81612a70565b15612fef576040517f08c379a0000000000000000000000000000000000000000000000000000000008152600401612fe690614b7d565b60405180910390fd5b612ffd600083836001612ab1565b61300681612a70565b15613046576040517f08c379a000000000000000000000000000000000000000000000000000000000815260040161303d90614b7d565b60405180910390fd5b6001600360008473ffffffffffffffffffffffffffffffffffffffff1673ffffffffffffffffffffffffffffffffffffffff16815260200190815260200160002060008282540192505081905550816002600083815260200190815260200160002060006101000a81548173ffffffffffffffffffffffffffffffffffffffff021916908373ffffffffffffffffffffffffffffffffffffffff160217905550808273ffffffffffffffffffffffffffffffffffffffff16600073ffffffffffffffffffffffffffffffffffffffff167fddf252ad1be2c89b69c2b068fc378daa952ba7f163c4a11628f55a4df523b3ef60405160405180910390a4613150600083836001612bd7565b5050565b82805461316090613bf1565b90600052602060002090601f01602090048101928261318257600085556131c9565b82601f1061319b57803560ff19168380011785556131c9565b828001600101855582156131c9579182015b828111156131c85782358255916020019190600101906131ad565b5b5090506131d69190613260565b5090565b8280546131e690613bf1565b90600052602060002090601f016020900481019282613208576000855561324f565b82601f1061322157805160ff191683800117855561324f565b8280016001018555821561324f579182015b8281111561324e578251825591602001919060010190613233565b5b50905061325c9190613260565b5090565b5b80821115613279576000816000905550600101613261565b5090565b6000604051905090565b600080fd5b600080fd5b60007fffffffff0000000000000000000000000000000000000000000000000000000082169050919050565b6132c681613291565b81146132d157600080fd5b50565b6000813590506132e3816132bd565b92915050565b6000602082840312156132ff576132fe613287565b5b600061330d848285016132d4565b91505092915050565b60008115159050919050565b61332b81613316565b82525050565b60006020820190506133466000830184613322565b92915050565b600081519050919050565b600082825260208201905092915050565b60005b8381101561338657808201518184015260208101905061336b565b83811115613395576000848401525b50505050565b6000601f19601f8301169050919050565b60006133b78261334c565b6133c18185613357565b93506133d1818560208601613368565b6133da8161339b565b840191505092915050565b600060208201905081810360008301526133ff81846133ac565b905092915050565b6000819050919050565b61341a81613407565b811461342557600080fd5b50565b60008135905061343781613411565b92915050565b60006020828403121561345357613452613287565b5b600061346184828501613428565b91505092915050565b600073ffffffffffffffffffffffffffffffffffffffff82169050919050565b60006134958261346a565b9050919050565b6134a58161348a565b82525050565b60006020820190506134c0600083018461349c565b92915050565b6134cf8161348a565b81146134da57600080fd5b50565b6000813590506134ec816134c6565b92915050565b6000806040838503121561350957613508613287565b5b6000613517858286016134dd565b925050602061352885828601613428565b9150509250929050565b600080fd5b600080fd5b600080fd5b60008083601f84011261355757613556613532565b5b8235905067ffffffffffffffff81111561357457613573613537565b5b6020830191508360018202830111156135905761358f61353c565b5b9250929050565b600080602083850312156135ae576135ad613287565b5b600083013567ffffffffffffffff8111156135cc576135cb61328c565b5b6135d885828601613541565b92509250509250929050565b6000806000606084860312156135fd576135fc613287565b5b600061360b868287016134dd565b935050602061361c868287016134dd565b925050604061362d86828701613428565b9150509250925092565b600080fd5b7f4e487b7100000000000000000000000000000000000000000000000000000000600052604160045260246000fd5b6136748261339b565b810181811067ffffffffffffffff821117156136935761369261363c565b5b80604052505050565b60006136a661327d565b90506136b2828261366b565b919050565b600067ffffffffffffffff8211156136d2576136d161363c565b5b6136db8261339b565b9050602081019050919050565b82818337600083830152505050565b600061370a613705846136b7565b61369c565b90508281526020810184848401111561372657613725613637565b5b6137318482856136e8565b509392505050565b600082601f83011261374e5761374d613532565b5b813561375e8482602086016136f7565b91505092915050565b60006020828403121561377d5761377c613287565b5b600082013567ffffffffffffffff81111561379b5761379a61328c565b5b6137a784828501613739565b91505092915050565b6000602082840312156137c6576137c5613287565b5b60006137d4848285016134dd565b91505092915050565b6137e681613407565b82525050565b600060208201905061380160008301846137dd565b92915050565b60006138128261346a565b9050919050565b61382281613807565b82525050565b600060208201905061383d6000830184613819565b92915050565b61384c81613316565b811461385757600080fd5b50565b60008135905061386981613843565b92915050565b6000806040838503121561388657613885613287565b5b6000613894858286016134dd565b92505060206138a58582860161385a565b9150509250929050565b600067ffffffffffffffff8211156138ca576138c961363c565b5b6138d38261339b565b9050602081019050919050565b60006138f36138ee846138af565b61369c565b90508281526020810184848401111561390f5761390e613637565b5b61391a8482856136e8565b509392505050565b600082601f83011261393757613936613532565b5b81356139478482602086016138e0565b91505092915050565b6000806000806080858703121561396a57613969613287565b5b6000613978878288016134dd565b9450506020613989878288016134dd565b935050604061399a87828801613428565b925050606085013567ffffffffffffffff8111156139bb576139ba61328c565b5b6139c787828801613922565b91505092959194509250565b600080600080604085870312156139ed576139ec613287565b5b600085013567ffffffffffffffff811115613a0b57613a0a61328c565b5b613a1787828801613541565b9450945050602085013567ffffffffffffffff811115613a3a57613a3961328c565b5b613a4687828801613541565b925092505092959194509250565b60008060408385031215613a6b57613a6a613287565b5b6000613a79858286016134dd565b9250506020613a8a858286016134dd565b9150509250929050565b600081519050919050565b600082825260208201905092915050565b6000819050602082019050919050565b600082825260208201905092915050565b6000613adc8261334c565b613ae68185613ac0565b9350613af6818560208601613368565b613aff8161339b565b840191505092915050565b6000613b168383613ad1565b905092915050565b6000602082019050919050565b6000613b3682613a94565b613b408185613a9f565b935083602082028501613b5285613ab0565b8060005b85811015613b8e5784840389528151613b6f8582613b0a565b9450613b7a83613b1e565b925060208a01995050600181019050613b56565b50829750879550505050505092915050565b60006020820190508181036000830152613bba8184613b2b565b905092915050565b7f4e487b7100000000000000000000000000000000000000000000000000000000600052602260045260246000fd5b60006002820490506001821680613c0957607f821691505b60208210811415613c1d57613c1c613bc2565b5b50919050565b7f4552433732313a20617070726f76616c20746f2063757272656e74206f776e6560008201527f7200000000000000000000000000000000000000000000000000000000000000602082015250565b6000613c7f602183613357565b9150613c8a82613c23565b604082019050919050565b60006020820190508181036000830152613cae81613c72565b9050919050565b7f4552433732313a20617070726f76652063616c6c6572206973206e6f7420746f60008201527f6b656e206f776e6572206f7220617070726f76656420666f7220616c6c000000602082015250565b6000613d11603d83613357565b9150613d1c82613cb5565b604082019050919050565b60006020820190508181036000830152613d4081613d04565b9050919050565b600081905092915050565b6000613d5e8385613d47565b9350613d6b8385846136e8565b82840190509392505050565b6000613d84828486613d52565b91508190509392505050565b7f4552433732313a2063616c6c6572206973206e6f7420746f6b656e206f776e6560008201527f72206f7220617070726f76656400000000000000000000000000000000000000602082015250565b6000613dec602d83613357565b9150613df782613d90565b604082019050919050565b60006020820190508181036000830152613e1b81613ddf565b9050919050565b600081905092915050565b50565b6000613e3d600083613e22565b9150613e4882613e2d565b600082019050919050565b6000613e5e82613e30565b9150819050919050565b7f4661696c656420746f207769746864726177204d617469630000000000000000600082015250565b6000613e9e601883613357565b9150613ea982613e68565b602082019050919050565b60006020820190508181036000830152613ecd81613e91565b9050919050565b7f4552433732313a20696e76616c696420746f6b656e2049440000000000000000600082015250565b6000613f0a601883613357565b9150613f1582613ed4565b602082019050919050565b60006020820190508181036000830152613f3981613efd565b9050919050565b7f4552433732313a2061646472657373207a65726f206973206e6f74206120766160008201527f6c6964206f776e65720000000000000000000000000000000000000000000000602082015250565b6000613f9c602983613357565b9150613fa782613f40565b604082019050919050565b60006020820190508181036000830152613fcb81613f8f565b9050919050565b6000613fdd8261334c565b613fe78185613d47565b9350613ff7818560208601613368565b80840191505092915050565b600061400f8285613fd2565b915061401b8284613fd2565b91508190509392505050565b60006140338385613357565b93506140408385846136e8565b6140498361339b565b840190509392505050565b6000602082019050818103600083015261406f818486614027565b90509392505050565b7f4e6f7420656e6f756768204d6174696320706169640000000000000000000000600082015250565b60006140ae601583613357565b91506140b982614078565b602082019050919050565b600060208201905081810360008301526140dd816140a1565b9050919050565b7f2e00000000000000000000000000000000000000000000000000000000000000600082015250565b600061411a600183613d47565b9150614125826140e4565b600182019050919050565b60008190508160005260206000209050919050565b6000815461415281613bf1565b61415c8186613d47565b945060018216600081146141775760018114614188576141bb565b60ff198316865281860193506141bb565b61419185614130565b60005b838110156141b357815481890152600182019150602081019050614194565b838801955050505b50505092915050565b60006141d1828587613d52565b91506141dc8261410d565b91506141e88284614145565b9150819050949350505050565b60006142018286614145565b915061420d8285613fd2565b91506142198284614145565b9150819050949350505050565b7f7b226e616d65223a202200000000000000000000000000000000000000000000600082015250565b600061425c600a83613d47565b915061426782614226565b600a82019050919050565b7f222c20226465736372697074696f6e223a20224120646f6d61696e206f6e207460008201527f6865207465737431206e616d652073657276696365222c2022696d616765223a60208201527f2022646174613a696d6167652f7376672b786d6c3b6261736536342c00000000604082015250565b60006142f4605c83613d47565b91506142ff82614272565b605c82019050919050565b7f222c226c656e677468223a220000000000000000000000000000000000000000600082015250565b6000614340600c83613d47565b915061434b8261430a565b600c82019050919050565b7f227d000000000000000000000000000000000000000000000000000000000000600082015250565b600061438c600283613d47565b915061439782614356565b600282019050919050565b60006143ad8261424f565b91506143b98286613fd2565b91506143c4826142e7565b91506143d08285613fd2565b91506143db82614333565b91506143e78284613fd2565b91506143f28261437f565b9150819050949350505050565b7f646174613a6170706c69636174696f6e2f6a736f6e3b6261736536342c000000600082015250565b6000614435601d83613d47565b9150614440826143ff565b601d82019050919050565b600061445682614428565b91506144628284613fd2565b915081905092915050565b7f4e487b7100000000000000000000000000000000000000000000000000000000600052603260045260246000fd5b7f4e487b7100000000000000000000000000000000000000000000000000000000600052601160045260246000fd5b60006144d682613407565b91507fffffffffffffffffffffffffffffffffffffffffffffffffffffffffffffffff8214156145095761450861449c565b5b600182019050919050565b6000604082019050818103600083015261452e81856133ac565b9050818103602083015261454281846133ac565b90509392505050565b7f4552433732313a207472616e736665722066726f6d20696e636f72726563742060008201527f6f776e6572000000000000000000000000000000000000000000000000000000602082015250565b60006145a7602583613357565b91506145b28261454b565b604082019050919050565b600060208201905081810360008301526145d68161459a565b9050919050565b7f4552433732313a207472616e7366657220746f20746865207a65726f2061646460008201527f7265737300000000000000000000000000000000000000000000000000000000602082015250565b6000614639602483613357565b9150614644826145dd565b604082019050919050565b600060208201905081810360008301526146688161462c565b9050919050565b600061467a82613407565b915061468583613407565b9250827fffffffffffffffffffffffffffffffffffffffffffffffffffffffffffffffff038211156146ba576146b961449c565b5b828201905092915050565b7f4552433732313a20617070726f766520746f2063616c6c657200000000000000600082015250565b60006146fb601983613357565b9150614706826146c5565b602082019050919050565b6000602082019050818103600083015261472a816146ee565b9050919050565b7f4552433732313a207472616e7366657220746f206e6f6e20455243373231526560008201527f63656976657220696d706c656d656e7465720000000000000000000000000000602082015250565b600061478d603283613357565b915061479882614731565b604082019050919050565b600060208201905081810360008301526147bc81614780565b9050919050565b7f4e487b7100000000000000000000000000000000000000000000000000000000600052601260045260246000fd5b6000608082019050818103600083015261480c81876133ac565b9050818103602083015261482081866133ac565b9050818103604083015261483481856133ac565b905061484360608301846137dd565b95945050505050565b600061485782613407565b915061486283613407565b925082614872576148716147c3565b5b828204905092915050565b600061488882613407565b915061489383613407565b9250817fffffffffffffffffffffffffffffffffffffffffffffffffffffffffffffffff04831182151516156148cc576148cb61449c565b5b828202905092915050565b7f45524337323155524953746f726167653a2055524920736574206f66206e6f6e60008201527f6578697374656e7420746f6b656e000000000000000000000000000000000000602082015250565b6000614933602e83613357565b915061493e826148d7565b604082019050919050565b6000602082019050818103600083015261496281614926565b9050919050565b6000606082019050818103600083015261498381866133ac565b905061499260208301856137dd565b81810360408301526149a481846133ac565b9050949350505050565b60006149b982613407565b91506149c483613407565b9250828210156149d7576149d661449c565b5b828203905092915050565b600081519050919050565b600082825260208201905092915050565b6000614a09826149e2565b614a1381856149ed565b9350614a23818560208601613368565b614a2c8161339b565b840191505092915050565b6000608082019050614a4c600083018761349c565b614a59602083018661349c565b614a6660408301856137dd565b8181036060830152614a7881846149fe565b905095945050505050565b600081519050614a92816132bd565b92915050565b600060208284031215614aae57614aad613287565b5b6000614abc84828501614a83565b91505092915050565b7f4552433732313a206d696e7420746f20746865207a65726f2061646472657373600082015250565b6000614afb602083613357565b9150614b0682614ac5565b602082019050919050565b60006020820190508181036000830152614b2a81614aee565b9050919050565b7f4552433732313a20746f6b656e20616c7265616479206d696e74656400000000600082015250565b6000614b67601c83613357565b9150614b7282614b31565b602082019050919050565b60006020820190508181036000830152614b9681614b5a565b905091905056fe0a2d2d2d2d2d2d2d2d2d2d2d2d2d2d2d2d2d2d2d2d2d2d2d2d2d2d2d2d2d2d2d2d2d2d2d2d2d2d2d2d2d2d2d2d2d2d2d2d2d2d2d2d2d2d2d2d5265676973746572696e672025732e2573206f6e2074686520636f6e7472616374207769746820746f6b656e49442025642d2d2d2d2d2d2d2d2d2d2d2d2d2d2d2d2d2d2d2d2d2d2d2d2d2d2d2d2d2d2d2d2d2d2d2d2d2d2d2d2d2d2d2d2d2d2d2d2d2d2d2d2d2d2d2d0a4142434445464748494a4b4c4d4e4f505152535455565758595a6162636465666768696a6b6c6d6e6f707172737475767778797a303132333435363738392b2fa2646970667358221220c7e7d260848f30e1f69816499118c0d57ac9a8054ffaf63b383c658b64e8d4b264736f6c634300080a00333c7376672077696474683d2234353922206865696768743d22343539222076696577426f783d223020302034353920343539222066696c6c3d226e6f6e652220786d6c6e733d22687474703a2f2f7777772e77332e6f72672f323030302f737667223e3c672066696c7465723d2275726c28236129223e3c706174682066696c6c3d2275726c282362292220643d224d302030683435397634353948307a222f3e3c2f673e3c7061746820643d224d38332e3938362036372e3637352036322e352038302e3732352034312036372e3637352036322e352033316c32312e3438362033362e3637355a4d36322e352038342e3931352034312037312e3836362036322e35203130332038342037312e3836366c2d32312e352031332e30355a222066696c6c3d2223303030222066696c6c2d6f7061636974793d222e35222f3e3c646566733e3c6c696e6561724772616469656e742069643d2262222078313d223232392e35222079313d2230222078323d223232392e35222079323d2234353922206772616469656e74556e6974733d227573657253706163654f6e557365223e3c73746f70206f66667365743d222e3937222073746f702d636f6c6f723d2223384545464546222f3e3c73746f70206f66667365743d2231222073746f702d636f6c6f723d2223453643394537222073746f702d6f7061636974793d2230222f3e3c2f6c696e6561724772616469656e743e3c66696c7465722069643d22612220783d22302220793d2230222077696474683d2234353922206865696768743d22343633222066696c746572556e6974733d227573657253706163654f6e5573652220636f6c6f722d696e746572706f6c6174696f6e2d66696c746572733d2273524742223e3c6665466c6f6f6420666c6f6f642d6f7061636974793d22302220726573756c743d224261636b67726f756e64496d616765466978222f3e3c6665426c656e6420696e3d22536f75726365477261706869632220696e323d224261636b67726f756e64496d6167654669782220726573756c743d227368617065222f3e3c6665436f6c6f724d617472697820696e3d22536f75726365416c706861222076616c7565733d2230203020302030203020302030203020302030203020302030203020302030203020302031323720302220726573756c743d2268617264416c706861222f3e3c66654f66667365742064793d2234222f3e3c6665476175737369616e426c757220737464446576696174696f6e3d2232222f3e3c6665436f6d706f7369746520696e323d2268617264416c70686122206f70657261746f723d2261726974686d6574696322206b323d222d3122206b333d2231222f3e3c6665436f6c6f724d61747269782076616c7565733d22302030203020302030203020302030203020302030203020302030203020302030203020302e32352030222f3e3c6665426c656e6420696e323d2273686170652220726573756c743d22656666656374315f696e6e6572536861646f775f335f34222f3e3c2f66696c7465723e3c2f646566733e",
  "linkReferences": {},
  "deployedLinkReferences": {}
}